:020000040800F2
:10000000900600206D080008F1010008F3010008C7
:10001000F7010008FB010008FF01000800000000D4
:1000200000000000000000000000000003020008C3
:10003000050200080000000007020008090200088D
:100040008708000887080008870800088708000854
:100050008708000887080008870800088708000844
:100060008708000887080008870800088708000834
:100070008708000887080008870800088708000824
:100080008708000887080008870800088708000814
:100090008708000887080008870800088708000804
:1000A00087080008870800088708000887080008F4
:1000B00087080008870800088708000887080008E4
:1000C00087080008870800088708000887080008D4
:1000D00087080008870800088708000887080008C4
:1000E00087080008870800088708000887080008B4
:1000F00087080008870800088708000887080008A4
:100100008708000887080008870800088708000893
:100110008708000887080008870800088708000883
:100120008708000887080008870800088708000873
:1001300000F002F800F03AF80AA090E8000C8244BF
:100140008344AAF10107DA4501D100F02FF8AFF29C
:10015000090EBAE80F0013F0010F18BFFB1A43F0A5
:1001600001031847B4120000D4120000103A24BF53
:1001700078C878C1FAD8520724BF30C830C144BF0C
:1001800004680C607047000000230024002500264E
:10019000103A28BF78C1FBD8520728BF30C148BFEA
:1001A0000B6070471FB51FBD10B510BD01F0F5F80D
:1001B0001146FFF7F7FF00F008F801F013F903B458
:1001C000FFF7F2FF03BC01F017F908B500F0E4FAFD
:1001D00000F0A4F900F0A1FA00F008F907E01E20F1
:1001E00000F017FB16200090684600F051FAF6E781
:1001F000704700BFFEE700BFFEE700BFFEE700BF9D
:10020000FEE7704770477047704700000CB500204C
:10021000019000906C48006840F480306A490860A2
:1002200000BF6948006800F4003000900198401C4D
:100230000190009818B90198B0F5A06FF1D162480B
:10024000006800F4003010B10120009001E00020AF
:1002500000900098012843D15C48006840F01000ED
:100260005A4908600846006820F003000860084604
:10027000006840F0020008605348406852494860F6
:100280000846406848600846406840F4806048601E
:100290000846406820F47C1048600846406840F4F6
:1002A000E81048600846006840F08070086000BFB1
:1002B0004548006800F000700028F9D042484068C6
:1002C00020F00300404948600846406840F00200C2
:1002D000486000BF3C48406800F00C000828F9D195
:1002E0000CBD10B5FFF792FF10BD10B53648006881
:1002F00040F001003449086008464068344908402D
:100300003149486008460068324908402E49086073
:100310000846006820F4802008600846406820F401
:10032000FE0048604FF41F008860FFF7DAFF4FF0CF
:1003300000602949086010BD10B50021002000228E
:10034000214B5B6803F00C0121B1042906D0082978
:1003500028D107E0214B224C236027E01F4B204C83
:10036000236023E0184B5B6803F47010164B5B6846
:1003700003F48032022303EB904022B9194B43432C
:10038000174C23600DE0104B5B6803F4003323B17E
:10039000144B4343124C236003E0104B4343104C77
:1003A000236003E00D4B0E4C236000BF00BF064BE3
:1003B0005B68C3F303130C4CE15C094B1B68CB4037
:1003C000074C236010BD00000010024000200240D6
:1003D0000000FFF8FFFFF6FE08ED00E000127A00D3
:1003E0000000002000093D000400002008B50121A4
:1003F000042000F0E5FD4FF40060ADF80000482057
:100400008DF803006946084800F01EFB08BD074848
:100410000068012804D106480078C04304490870E8
:100420000348007870470000000801402C01214279
:100430001400002010B5044600BF0221344800F02B
:1004400072FF0028F9D02146314800F019FF00BFA3
:1004500001212F4800F067FF0028F9D02C4800F058
:1004600011FFC0B210BD00B587B00121042000F01B
:10047000A7FD0121080300F0A3FDE020ADF818005E
:1004800018208DF81B0003208DF81A0006A92148BA
:1004900000F0DAFAE021204800F083FB0020ADF8FC
:1004A00004004FF48270ADF806000020ADF808009B
:1004B000ADF80A00ADF80C004FF40070ADF80E0076
:1004C0001820ADF810000020ADF812000720ADF89C
:1004D000140001A90E4800F0FDFD01210C4800F0B8
:1004E0009EFEFF20FFF7A6FF07B000BD10B5044633
:1004F000074800884FF6C77108400549088008463C
:100500000088204308800121014800F088FE10BDCA
:100510000030014000080140000C014008B50121F5
:10052000142000F04DFD1020ADF800008DF8030000
:1005300003208DF8020069468D4800F085FA1020EE
:10054000ADF8000069468B4800F07EFA2020ADF837
:10055000000028208DF803006946854800F074FAF1
:100560003021834800F01FFB1021824800F01BFB64
:10057000FFF779FF0120804908608049C1F89001A8
:1005800008BD2DE9F04107460D46164600207C497E
:1005900008603846FFF74EFF8046002405E0FF2044
:1005A000FFF748FF2855601CC4B2B442F7DB0120B6
:1005B000734908604046BDE8F0812DE9F0410746E7
:1005C0000C46154600206E4908603846FFF732FF9A
:1005D0008046002605E014F8010BFFF72BFF701C86
:1005E000C6B2AE42F7DB0120654908604046BDE86F
:1005F000F0811FB563A103C9CDE90201002000907D
:1006000001900820FFF772FF052202A93020FFF7B2
:10061000D4FF052269461020FFF7B3FF002408E04D
:1006200002A8005D1DF80410884200D003E0601CA1
:10063000C4B2052CF4DB00BF052C02D0012004B0AD
:1006400010BD0020FBE770B505460C4600204C4964
:1006500008602846FFF7EEFE06462046FFF7EAFE52
:1006600001204649C1F89001304670BD70B504467E
:100670000020434908602046FFF7DCFEFF20FFF71B
:10068000D9FE054601203D49C1F89001284670BDBC
:1006900070B505461020FFF729FF20222946A0202B
:1006A000FFF78BFF00BF36487C3800680028FAD17E
:1006B0000720FFF7DBFF044621462720FFF7C3FF93
:1006C00004F0100028B1FF21E120FFF7BCFF10204B
:1006D00070BD04F0200008B12020F9E7FF20F7E703
:1006E00070B504461020FFF701FF0720FFF7BEFF9B
:1006F000054629462720FFF7A6FF05F0400050B128
:10070000202221466120FFF73CFFFF21E220FFF776
:100710009AFF002070BD0120FCE710B500201649AB
:100720000860052219493020FFF747FF05221849C4
:100730002A20FFF742FF3F212120FFF784FF3F21BE
:100740002220FFF780FF1A212420FFF77CFF2821B9
:100750002520FFF778FF0F212620FFF774FF0E21D9
:100760002020FFF770FF01200A49C1F8900110BD59
:100770000010014000080140900121420000224287
:1007800090012242A5A5A5A5A50000000614000819
:100790000B1400080000214210B56FF0040000F0B7
:1007A000D4F82E4800682E49B0FBF1F02D490870AE
:1007B0000846007800EB4001C1EBC0104FF6FF7116
:1007C00001EAC0002849088010BD0146254A127878
:1007D0004A434FF0E0235A6100229A611A46126997
:1007E00042F001021A6100BF4FF0E022106900F0F0
:1007F00001021AB100F48032002AF5D04FF0E02255
:10080000126922F001024FF0E0231A6100229A617E
:1008100070470146144A12884A434FF0E0235A6158
:1008200000229A611A46126942F001021A6100BF61
:100830004FF0E022106900F001021AB100F480329A
:10084000002AF5D04FF0E022126922F001024FF0A9
:10085000E0231A6100229A61704700000000002026
:1008600000127A0016000020180000200948804776
:1008700009480047FEE7FEE7FEE7FEE7FEE7FEE782
:10088000FEE7FEE7FEE7FEE704480549054A064B9A
:1008900070470000EB0200083101000890000020C2
:1008A0009006002090020020900200203149014370
:1008B000314A1160704770B5002100230F22C478BF
:1008C00004B32D4C246804F4E064C4F5E064210A08
:1008D000C1F10403CA40447804FA03F18478144057
:1008E00021430901254C0678A155047804F01F0521
:1008F0000124AC4005786D11AD0005F1E025C5F887
:10090000004109E0047804F01F050124AC401C4DAF
:100910000678761145F8264070BD1A4A0A4002430F
:10092000154B1B1F1A60704739B1134A121D12680C
:100930000243114B1B1D1A6006E00F4A121D12687C
:1009400082430D4B1B1D1A607047042808D14FF0DD
:10095000E021096941F004014FF0E022116107E054
:100960004FF0E021096921F004014FF0E02211610C
:10097000704700000000FA050CED00E000E400E024
:1009800080E100E080FFFF1F10B50446CC488442A0
:1009900008D10121042000F02DFB0021042000F0EB
:1009A00029FB46E0C748844208D10121082000F015
:1009B00021FB0021082000F01DFB3AE0C2488442E0
:1009C00008D10121102000F015FB0021102000F0BB
:1009D00011FB2EE0BD48844208D10121202000F007
:1009E00009FB0021202000F005FB22E0B8488442EA
:1009F00008D10121402000F0FDFA0021402000F044
:100A0000F9FA16E0B348844208D10121802000F0B1
:100A1000F1FA0021802000F0EDFA0AE0AE488442AD
:100A200007D10121801500F0E5FA0021A01500F0A2
:100A3000E1FA10BD10B50121084600F0DBFA0021F3
:100A4000012000F0D7FA10BD2DE9F0410246002543
:100A50000026002000230024002791F803C00CF09A
:100A60000F0591F803C00CF0100CBCF1000F03D07F
:100A700091F802C04CEA050591F800C0BCF1000FE6
:100A800031D0146800202BE04FF0010C0CFA00F379
:100A9000B1F800C00CEA03069E4220D183004FF05B
:100AA0000F0C0CFA03F7BC4305FA03FC4CEA0404F0
:100AB00091F803C0BCF1280F06D14FF0010C0CFADD
:100AC00000FCC2F814C00AE091F803C0BCF1480F62
:100AD00005D14FF0010C0CFA00FCC2F810C0401C0C
:100AE0000828D1D31460B1F800C0BCF1FF0F34DD89
:100AF000546800202EE000F1080C4FF0010808FABD
:100B00000CF3B1F800C00CEA03069E4221D1830029
:100B10004FF00F0C0CFA03F7BC4305FA03FC4CEA48
:100B2000040491F803C0BCF1280F05D100F1080CB2
:100B300008FA0CF8C2F8148091F803C0BCF1480F11
:100B400007D100F1080C4FF0010808FA0CF8C2F8C0
:100B50001080401C0828CED35460BDE8F0814FF6C9
:100B6000FF710180022181700421C170704702462B
:100B7000002093680B400BB1012000E0002070477B
:100B80000146886880B2704702460020D3680B4057
:100B90000BB1012000E0002070470146C86880B218
:100BA000704701617047416170470AB1016100E01F
:100BB00041617047C16070474FF480320A438261DF
:100BC0008161826182698269704702460020434BDD
:100BD00018684FF68073184040EA021008433F4BF4
:100BE000186070473E49C8617047F0B50A46002357
:100BF00000240021002500F00046B6F1004F02D18C
:100C0000364EF16901E0354E7168C0F3034583B299
:100C100000F44016B6F5401F08D121F070612F4E48
:100C2000766826F070662D4F7E6012E000F4801624
:100C3000B6F5801F06D1032606FA05F4A14341F05C
:100C4000706106E0460D360103FA06F6B14341F045
:100C5000706122B1460D360103FA06F6314300F009
:100C60000046B6F1004F02D11C4EF16101E01B4E6F
:100C70007160F0BD30B500228B071C0F0F2303FA03
:100C800004F2164B08338C1053F824309343134C62
:100C900008348D1044F8253023468C1053F8243046
:100CA0008C07240F00FA04F423430C4C08348D10F5
:100CB00044F8253030BD0A49DC3108607047000037
:100CC00000080140000C01400010014000140140E8
:100CD00000180140001C01400020014000000140BC
:100CE00000002042DF48006840F00100DD49086054
:100CF00008464068DC490840DA4948600846006810
:100D0000DA490840D74908600846006820F4802086
:100D100008600846406820F4FE0048604FF41F0059
:100D200088607047CF49096821F48031CD4A11604D
:100D30001146096821F480211160B0F5803F03D08D
:100D4000B0F5802F0ED106E0C649096841F4803124
:100D5000C44A116007E0C349096841F4A021C14AAF
:100D6000116000E000BF00BF704710B501460022CF
:100D7000002300204A11012A02D1BA4C236806E060
:100D8000022A02D1B74C236A01E0B64C636A01F033
:100D90001F02012494401C400CB1012000E00020FF
:100DA00010BD38B5002000900024002500BF312080
:100DB000FFF7DBFF05460098401C00900098B0F557
:100DC000A06F01D0002DF2D03120FFF7CEFF08B187
:100DD000012400E00024204638BD01460020A14A3D
:100DE000106820F0F80040EAC10010607047A04988
:100DF00008607047024600209A4B586820F47C1027
:100E000042EA01031843974B5860704798490866B7
:100E1000704701460020934A506820F003000843C1
:100E2000506070478F48406800F00C0070470146E2
:100E300000208C4A506820F0F00008435060704752
:100E400001460020874A506820F4E0600843506063
:100E5000704701460020834A506820F4605040EA01
:100E6000C1005060704729B17E4A527A02437D4BDF
:100E70005A7204E07B4A527A82437A4B5A72704724
:100E80007B49D8310860704701460020754A506898
:100E900020F440400843506070470021714A2032DE
:100EA0001170704A82F82010012802D004280AD15B
:100EB00004E001216B4A2032117005E00521694AE6
:100EC0002032117000E000BF00BF70476949086020
:100ED00070476449096A0143624A11627047654973
:100EE00044390860704730B50021002200240023F7
:100EF0005C4D6D6805F00C0121B1042905D008296D
:100F000023D105E05C4D056022E05B4D05601FE0EC
:100F1000544D6D6805F47012524D6D6805F48034BF
:100F2000022505EB92421CB9544D554305600BE078
:100F30004C4D6D6805F400351DB1504D55430560AD
:100F400002E04D4D5543056002E04B4D056000BF8A
:100F500000BF444D6D6805F0F0010909484D6B5C18
:100F60000568DD4045603F4D6D6805F4E061090AA4
:100F7000434D6B5C4568DD4085603A4D6D6805F416
:100F80006051C90A3E4D6B5C4568DD40C560354D1A
:100F90006D6805F44041890B3A4D6B5CC568B5FB43
:100FA000F3F5056130BD29B12E4A526902432D4B3C
:100FB0005A6104E02B4A526982432A4B5A617047B6
:100FC00029B1284A92690243264B9A6104E0254AD6
:100FD00092698243234B9A61704729B1214AD269B1
:100FE0000243204BDA6104E01E4AD26982431D4B62
:100FF000DA61704729B11B4AD2680243194BDA60A3
:1010000004E0184AD2688243164BDA60704729B16F
:10101000144A12690243134B1A6104E0114A12691F
:101020008243104B1A61704712494039086070477B
:101030000F49C86470470B49C87170470948406A36
:1010400040F0807007494862704701460020054A19
:1010500092680A400AB1012000E00020704701496F
:1010600088727047001002400000FFF8FFFFF6FE94
:10107000000042428004424200127A0000093D0012
:101080001A0000202A00002010B50446BE48844201
:1010900008D101218014FFF7ADFF0021A014FFF754
:1010A000A9FF16E0B948844208D101210014FFF7D6
:1010B000AEFF00212014FFF7AAFF0AE0B4488442E3
:1010C00007D10121C013FFF7A2FF0021E013FFF7B2
:1010D0009EFF10BD10B50022028802F441520B8819
:1010E0004C8823438C882343CC8823430C89234397
:1010F0004C8923438C892343CC8923431A430280A0
:10110000838B4FF2FF74234083830B8A038210BDCD
:101110002DE9F04F85B005460C464FF00009022737
:101120004FF000084FF0010B0026B246A88B4FF29B
:1011300040010840A88302202884B5F81C90A068CC
:10114000022801D100BF38E0A08810B94FF0010B90
:1011500001E04FF0020B8D48854200D100E000BF56
:101160006846FFF7C0FEDDF800A0E088B0F5007F1C
:101170000AD14FEA1A2000EB80004000A168B0FBC2
:10118000F1F0401D86B20BE04FEA4B10BAFBF0F0D5
:1011900000EB80004000A168B0FBF1F0401D86B27A
:1011A0000A20B6FBF0F606F00108A6EB0800C0F333
:1011B0004F074FF6FF7000EA0828022F01DBFF2FD0
:1011C00002DD02274FF00008E08840EA08003843BB
:1011D0002884A088A189084361880843218808439E
:1011E00040F4006040EA0909A5F81C9005B0BDE88C
:1011F000F08F0021018041808180C1800181418187
:101200008181C181072101827047002101804180D5
:101210008180C1800221816000218181704721B1DC
:10122000028842F04002028004E002884FF6BF7359
:101230001A400280704721B1828B42F4806282831F
:1012400004E0828B4FF6FF331A408283704730B53B
:10125000002400230C110125A540ABB21AB18588EA
:101260001D43858002E085889D43858030BD1AB18D
:1012700083880B43838002E083888B43838070479D
:10128000818170470146888970474FF6FF6291421D
:1012900004D0028842F48072028004E002884FF693
:1012A000FF631A400280704721B1828842F0040235
:1012B000828004E082884FF6FB731A408280704778
:1012C00002884FF2FF731A40028002880A430280AC
:1012D0007047018841F480510180704721B1028834
:1012E00042F40052028004E002884DF6FF731A4077
:1012F0000280704702460020012901D0108B00E0D7
:10130000908A70470146088A7047B1F5804F04D132
:10131000028842F48042028004E002884BF6FF73A8
:101320001A40028070470246002013890B400BB11F
:10133000012000E000207047CA4302817047F0B5E9
:101340000246002000240023002501F00F0701269B
:10135000BE40B4B20B1101269E40B3B2968806EA95
:1013600003051689264016B10DB1012000E00020CA
:10137000F0BD10B5002201F00F040123A3409AB282
:10138000D343038110BD000000300140003800400D
:10139000003C0040704770477047754600F028F8E1
:1013A000AE4605006946534620F00700854618B052
:1013B00020B5FFF769FABDE820404FF000064FF076
:1013C00000074FF000084FF0000B21F00701AC467A
:1013D000ACE8C009ACE8C009ACE8C009ACE8C00999
:1013E0008D4670470446AFF300802046FEF7E7FEC7
:1013F000004870473000002001491820ABBEFEE7CE
:101400002600020070471143101001114310100113
:1014100011431010010000003814000800000020E3
:10142000300000006C010008681400083000002043
:10143000600600008801000800A24A0400000000C5
:101440000000000001020304060708090100000073
:10145000000000000000010203040102030406076B
:0814600008090204060800005F
:0400000508000131BD
:00000001FF
