:020000040800F2
:1000000080070020DD01000803090008FB08000844
:10001000FF080008110500086B120008000000002E
:10002000000000000000000000000000A10A00081D
:100030001505000800000000890900086D0D000882
:10004000F7010008F7010008F7010008F7010008B0
:10005000F7010008F701000819050008F70100087A
:10006000F7010008F7010008F7010008F701000890
:10007000F7010008F7010008F7010008F701000880
:10008000F7010008F7010008F7010008F701000870
:10009000F7010008F7010008F7010008ED05000866
:1000A000F7010008F7010008F7010008F701000850
:1000B000F7010008D10D0008F7010008F70100085A
:1000C000F7010008F7010008F7010008F701000830
:1000D000F701000805100008F7010008F701000803
:1000E000F7010008F7010008F7010008F701000810
:1000F000F7010008F7010008F7010008F701000800
:10010000F7010008F7010008F7010008F7010008EF
:10011000F7010008F7010008F7010008F7010008DF
:10012000F7010008F7010008F7010008F7010008CF
:1001300000F002F800F042F80AA090E8000C8244B7
:100140008344AAF10107DA4501D100F037F8AFF294
:10015000090EBAE80F0013F0010F18BFFB1A43F0A5
:1001600001031847C4160000E4160000103A24BF2B
:1001700078C878C1FAD8520724BF30C830C144BF0C
:1001800004680C607047000000230024002500264E
:10019000103A28BF78C1FBD8520728BF30C148BFEA
:1001A0000B607047642900F0A580632900F0458149
:1001B000002070471FB51FBD10B510BD00F078F9C5
:1001C0001146FFF7F7FF01F0ABF800F096F903B422
:1001D000FFF7F2FF03BC01F04AF80000094880472E
:1001E00009480047FEE7FEE7FEE7FEE7FEE7FEE719
:1001F000FEE7FEE7FEE7FEE704480549054A064B31
:1002000070470000710D00083101000880010020D6
:10021000800700208003002080030020704700003A
:100220000FB4044910B503AA029800F013F910BCEA
:100230005DF814FB180000202DE9F0410E4604463D
:10024000002020622046E168884730B3252805D089
:10025000D4E901219047206A401CF2E7E16820467A
:1002600000278847050018D0A5F14100192802D8B9
:1002700020354FF400673246294620462760FFF7B5
:1002800091FF40B1012804D0F61D26F0070608367C
:10029000D8E7361DD6E72846DAE7206ABDE8F081C0
:1002A00070B50C460546012A05D02878800600D591
:1002B000EA69002302E0012305E05B1C934202D2BD
:1002C000E05C0028F9D1A869E618C01AA861286A7C
:1002D000184428622846AFF3008004E0D5E90121E4
:1002E00014F8010B9047B442F8D32846AFF30080CE
:1002F00070BD00002DE9F041064600241068752904
:10030000314616A510D0AFF30080002802DA404233
:1003100013A507E031688A0701D512A502E0490755
:1003200004D511A5012401E0AFF3008000210A22C9
:1003300006F1240709E0B0FBF2FCB0FBF2F302FB8C
:100340001C00303078541846491C0028F3D123464D
:100350002A463046BDE8F04100F00CB8000000002D
:100360002D0000002B0000002000000070477047A7
:10037000704770472DE9F0470D469946924604466E
:1003800000F124080168880604D5E06921F0100115
:10039000216000E00120A84201DD471B00E00027AA
:1003A000A1697A1902EB0900081AA0612078C00639
:1003B00002D42046AFF30080002608E0D4E90121F2
:1003C0001AF806009047206A401C761C20624E45B1
:1003D000F4DB2078C0060AD52046AFF3008006E0A3
:1003E000D4E9012130209047206A401C2062381E49
:1003F000A7F10107F4DC07E0D4E9012118F80500B2
:100400009047206A401C2062281EA5F10105F3DCFC
:100410002046AFF300802078000602D50220BDE818
:10042000F0870120FBE710B5436913B1AFF30080FB
:1004300001E0FFF735FF012010BD127800F1240123
:100440000A7000224A700122EDE711684FF0FF3276
:10045000E9E70000074B70B50D467B4400F011F84A
:100460000446284600F020F810B14FF0FF3070BD70
:10047000204670BDA70E000001694A1C0261087881
:10048000704700B58FB0CDE90131002105910549D4
:100490007944CDE9031011466846FFF7CDFE0FB051
:1004A00000BD0000E5FFFFFF007B00F0800070470B
:1004B000754600F029F8AE4605006946534620F01F
:1004C0000700854618B020B5FFF796FEBDE820402E
:1004D0004FF000064FF000074FF000084FF0000B00
:1004E00021F00701AC46ACE8C009ACE8C009ACE8B3
:1004F000C009ACE8C0098D4670470446AFF30080E0
:100500002046FFF764FE00000048704720010020ED
:1005100000BFFEE7704700002DE9F04100240120F4
:1005200000F0D4F800284ED0012000F0C9F80121D5
:10053000264800F0D4F901280BD10021244800F00E
:100540000DFD0120234908700121214800F0DDFC48
:1005500039E000211E4800F0D8FC1E48007878B32E
:10056000002417E01A4800F0DCFC1B49086008462C
:10057000006800EB001040004FF47A71B0FBF1F01E
:100580001549086008460068144909680844134979
:100590000860641C052CE5DB0120114908700F4838
:1005A000006801F0DAF8054600220E4B00F050FF1B
:1005B000074601F0A5F80C490860002007490860CB
:1005C000002004490870BDE8F081000000080140E7
:1005D00000100040510000203C0000204C00002092
:1005E0005000002000001440340000202DE9F041AC
:1005F0000024202000F06AF800284ED0202000F0CF
:100600005FF82021264800F06AF901280BD100216B
:10061000244800F0A3FC012023490870012121484F
:1006200000F073FC39E000211E4800F06EFC1E480B
:10063000007878B3002417E01A4800F072FC1B49D8
:1006400008600846006800EB001040004FF47A7123
:10065000B0FBF1F0154908600846006814490968C4
:10066000084413490860641C052CE5DB012011498E
:1006700008700F48006801F070F8054600220E4B24
:1006800000F0E6FE074601F03BF80C490860002048
:1006900007490860002004490870BDE8F0810000A7
:1006A00000100140000800405200002040000020DF
:1006B00048000020500000200000144038000020B6
:1006C0000149086070470000140401400146002001
:1006D0000022074B1B6803EA0102054B14331B6819
:1006E0000B4013B10AB1012000E000207047000068
:1006F00000040140002123498279002A3AD00A46A9
:10070000126803689A430B461A600A1D1268036850
:100710009A430B1D1A60027911440A6803681A4350
:100720000A60184A0832126803689A43154B083366
:100730001A601A1D126803689A43124B0C331A6030
:100740004279102A0ED11A1F126803681A430D4B02
:1007500008331A601A1D126803681A43094B0C33D8
:100760001A600DE00749427911440A6803681A4388
:100770000A6005E0027911440A6803689A430A6036
:10078000704700000004014030B500228B071C0FA9
:100790000F2303FA04F20B4B8C1053F824309343CD
:1007A000084C8D1044F8253023468C1053F8243023
:1007B0008C07240F00FA04F42343024C8D1044F8F4
:1007C000253030BD080001402DE9F04102460025EA
:1007D0000026002000230024002791F803C00CF01D
:1007E0000F0591F803C00CF0100CBCF1000F03D002
:1007F00091F802C04CEA050591F800C0BCF1000F69
:1008000031D0146800202BE04FF0010C0CFA00F3FB
:10081000B1F800C00CEA03069E4220D183004FF0DD
:100820000F0C0CFA03F7BC4305FA03FC4CEA040472
:1008300091F803C0BCF1280F06D14FF0010C0CFA5F
:1008400000FCC2F814C00AE091F803C0BCF1480FE4
:1008500005D14FF0010C0CFA00FCC2F810C0401C8E
:100860000828D1D31460B1F800C0BCF1FF0F34DD0B
:10087000546800202EE000F1080C4FF0010808FA3F
:100880000CF3B1F800C00CEA03069E4221D18300AC
:100890004FF00F0C0CFA03F7BC4305FA03FC4CEACB
:1008A000040491F803C0BCF1280F05D100F1080C35
:1008B00008FA0CF8C2F8148091F803C0BCF1480F94
:1008C00007D100F1080C4FF0010808FA0CF8C2F843
:1008D0001080401C0828CED35460BDE8F081024649
:1008E000002093680B400BB1012000E0002070470E
:1008F0000AB1016100E04161704700BFFEE700BF3F
:10090000FEE7704770B5002100230F22C47804B3BE
:10091000154C246804F4E064C4F5E064210AC1F1D4
:100920000403CA40447804FA03F184781440214354
:1009300009010E4C0678A155047804F01F05012426
:10094000AC4005786D11AD0005F1E025C5F800411A
:1009500009E0047804F01F050124AC40044D06783A
:10096000761145F8264070BD0CED00E000E400E093
:1009700080E100E002490143024A11607047000033
:100980000000FA050CED00E07047000029B1064AAE
:10099000D2690243044BDA6104E0034AD26982431C
:1009A000014BDA61704700000010024029B1064A8D
:1009B00092690243044B9A6104E0034A92698243BC
:1009C000014B9A61704700000010024030B50021D1
:1009D0000022002400232D4D6D6805F00C0121B18B
:1009E000042905D0082923D105E0294D056022E01E
:1009F000274D05601FE0254D6D6805F47012234DED
:100A00006D6805F48034022505EB92421CB9214D36
:100A1000554305600BE01D4D6D6805F400351DB1B3
:100A20001C4D5543056002E0194D5543056002E039
:100A3000174D056000BF00BF144D6D6805F0F00153
:100A40000909154D6B5C0568DD4045600F4D6D680B
:100A500005F4E061090A104D6B5C4568DD40856076
:100A60000A4D6D6805F46051C90A0B4D6B5C456811
:100A7000DD40C560054D6D6805F44041890B074DAB
:100A80006B5CC568B5FBF3F5056130BD0010024035
:100A900000127A0000093D001E0000202E000020F8
:100AA000704710B500F002F810BD00000CB5002032
:100AB000019000903348006840F48030314908606C
:100AC00000BF3048006800F4003000900198401CDE
:100AD0000190009818B90198B0F5A06FF1D129489C
:100AE000006800F4003010B10120009001E0002007
:100AF00000900098012843D12348006840F010007E
:100B0000214908600846006820F003000860084694
:100B1000006840F0020008601A48406819494860BF
:100B20000846406848600846406840F48060486075
:100B30000846406820F47C1048600846406840F44D
:100B4000E81048600846006840F08070086000BF08
:100B50000C48006800F000700028F9D0094840688F
:100B600020F00300074948600846406840F0020052
:100B7000486000BF0348406800F00C000828F9D125
:100B80000CBD000000100240002002401FB50121F2
:100B90000520FFF70BFF01211120FFF707FF1020B1
:100BA0008DF8030003208DF802000220ADF800004C
:100BB00069464248FFF708FE10208DF80300032025
:100BC0008DF802001020ADF8000069463C48FFF7A0
:100BD000FBFD28208DF803000120ADF800006946D8
:100BE0003648FFF7F1FD28208DF803002020ADF8EE
:100BF000000069463248FFF7E7FD002202212F4836
:100C0000FFF776FE002210212D48FFF771FE01202C
:100C1000FFF756FD00210846FFF7B6FD01200190C1
:100C200000208DF8080010208DF8090001208DF8B3
:100C30000A0001A8FFF75EFD2020FFF741FD052116
:100C40000220FFF7A1FD2020019000208DF8080070
:100C500010208DF8090001208DF80A0001A8FFF787
:100C600049FD4FF4A060FFF785FE06208DF80C00CB
:100C700001208DF80D0000208DF80E0001208DF868
:100C80000F0003A8FFF73EFE4FF4A060FFF772FECF
:100C900017208DF80C0001208DF80D008DF80E0046
:100CA0008DF80F0003A8FFF72DFE0020054908600E
:100CB000054908600120054908701FBD0008014072
:100CC00000100140340000203800002050000020B7
:100CD00010B5002417480078012829D1164800686B
:100CE000642825D9002014490860012202211348F4
:100CF000FFF7FEFD00BF01E0601C84B2F02CFBDBBF
:100D0000002202210D48FFF7F3FD012210210C48BB
:100D1000FFF7EEFD002401E0601C84B2F02CFBDB49
:100D2000002210210648FFF7E3FD0020014908706A
:100D300010BD0000500000204400002000080140C9
:100D400000100140042808D14FF0E021096941F06A
:100D500004014FF0E022116107E04FF0E021096942
:100D600021F004014FF0E02211617047704700004C
:100D700010B51348006840F00100114908600846AA
:100D80004068104908400E494860084600680E490E
:100D900008400B4908600846006820F4802008607D
:100DA0000846406820F4FE0048604FF41F00886049
:100DB000FFF777FE4FF000600449086010BD0000A7
:100DC000001002400000FFF8FFFFF6FE08ED00E013
:100DD00010B501210D4800F0A7F8B0B101210B4872
:100DE00000F090F80A480068401C0949086009486A
:100DF0000068401C0749086008460068082804D3BA
:100E0000FFF766FF00200349086010BD00040040A2
:100E100044000020540000207FB505460C46012107
:100E20000220FFF7B3FDADF80850ADF804400020F4
:100E3000ADF80A00ADF8060001A90F4800F090F8DF
:100E4000012211460C4800F080F84FF4A060FFF733
:100E500091FD1D208DF8000000208DF801008DF817
:100E6000020001208DF803006846FFF74BFD0121C9
:100E7000014800F04AF87FBD000400400EB5012192
:100E80000420FFF783FD4FF6FF70ADF804008E20BD
:100E9000ADF800000020ADF80600ADF8020069468C
:100EA000064800F05DF800220121044800F04DF8EA
:100EB0000021024800F029F80EBD000000080040A3
:100EC0000EB501211020FFF761FD4FF6FF70ADF860
:100ED00004008E20ADF800000020ADF80600ADF84B
:100EE00002006946064800F03BF800220121044850
:100EF00000F02BF80021024800F007F80EBD0000BA
:100F000000100040CA430282704721B1028842F0BB
:100F10000102028004E002884FF6FE731A4002804C
:100F200070470146888C704730B502460020002388
:100F30000024158A05EA0103958905EA010413B125
:100F40000CB1012000E0002030BD1AB183890B43B1
:100F5000838102E083898B4383817047818470475A
:100F6000002202881D4B98420ED01D4B98420BD098
:100F7000B0F1804F08D01B4B984205D01A4B9842D5
:100F800002D01A4B984204D14FF68F731A404B8807
:100F90001A43174B984207D0164B984204D04FF68D
:100FA000FF431A40CB881A4302808B8883850B88C5
:100FB00003850A4B98420BD0094B984208D00E4B40
:100FC000984205D00D4B984202D00D4B984201D16A
:100FD0000B7A03860123838270470000002C0140B6
:100FE000003401400004004000080040000C0040B4
:100FF0000010004000140040004001400044014047
:101000000048014070B540F22551264800F06DF8C7
:1010100010B3244800F024F9C4B22348008800F437
:101020000040C8B92048008800F4804060B10A2C14
:1010300003D000201C49088020E01B48008840F4B1
:1010400000401949088019E00D2C06D11648008887
:1010500040F480401449088010E013480088C0F331
:101060000D0012490C5410480088401C0E4908809D
:1010700008460088C72801DD0020088040F225517D
:10108000084800F032F860B140F22551054800F000
:1010900011F8044800F0E4F8C5B2294604A0FFF7AF
:1010A000BFF870BD003801401C000020580000202F
:1010B0002563000010B50022002340F66A14A14207
:1010C00000D100BF0A1201249440A3B2DC43048083
:1010D00010BD21B1828942F40052828104E08289EC
:1010E0004DF6FF731A408281704770B502460024A6
:1010F00000230025002040F66A16B14200D100BF4F
:10110000C1F3421501F01F03012606FA03F3012D76
:1011100002D19689334006E0022D02D1168A33406F
:1011200001E0968A33400C12012606FA04F4168870
:10113000344013B10CB1012000E0002070BDF0B5C7
:101140000346002400260025002040F66A17B94215
:1011500000D100BF1846C1F3421401F01F06012759
:1011600007FA06F5012C01D10C3004E0022C01D164
:10117000103000E014301AB107682F43076002E016
:101180000768AF430760F0BD2DE9F04786B005461C
:101190000E460024A24600BFA1460027B08900B138
:1011A00000BF2F462C8A4CF6FF700440F0880443A1
:1011B0002C82AC894EF6F3100440B0883189084384
:1011C000718908430443AC81AC8A4FF6FF40044068
:1011D000B0890443AC8201A8FFF7F8FB1F4887429F
:1011E00002D1DDF810A001E0DDF80CA0A88900F420
:1011F000004040B10AEBCA0000EB0A103168490018
:10120000B0FBF1F807E00AEBCA0000EB0A10316806
:101210008900B0FBF1F86420B8FBF0F0040120096C
:10122000642101FB1089A88900F4004040B13220FC
:1012300000EBC900B0FBF1F000F00700044308E048
:10124000322000EB09106421B0FBF1F000F00F0038
:1012500004432C8106B0BDE8F0870000003801404F
:1012600001468888C0F30800704700BFFEE70146CA
:1012700000BF704710B56FF00400FFF763FD0A4828
:1012800000680A49B0FBF1F0094908700846007887
:1012900000EB4001C1EBC0104FF6FF7101EAC00046
:1012A0000449088010BD00000000002000127A00F0
:1012B00014000020160000200146114A12884A43FB
:1012C0004FF0E0235A6100229A611A46126942F0F7
:1012D00001021A6100BF4FF0E022106900F0010224
:1012E0001AB100F48032002AF5D04FF0E0221269E2
:1012F00022F001024FF0E0231A6100229A61704748
:101300001600002000BF054A128802F04002002AA1
:10131000F9D0C2B2014B1B1D1A8070470038014042
:101320004FF4E13000F03EF8FFF7CAFDFFF7A6FDED
:10133000FFF72CFC41F61F410420FFF76DFDFFF77E
:1013400099FF09E01920FFF7B7FF04480268044835
:10135000016804A0FEF764FFF4E7000038000020F5
:1013600034000020546865206C69667420646973D9
:1013700074616E63652069733A20256420636D0D86
:101380002020202054686520726967687420646991
:101390007374616E63652069733A20256420636D00
:1013A0000A00000010B586B00446012144F2040092
:1013B000FFF7FCFA4FF40070ADF8140003208DF82D
:1013C000160018208DF8170005A91F48FFF7FCF933
:1013D0004FF48060ADF8140004208DF8170005A9C3
:1013E0001948FFF7F1F94FF44070FFF7C3FA2520D1
:1013F0008DF8000002208DF8010000208DF8020019
:1014000001208DF803006846FFF77CFA0194002064
:10141000ADF80800ADF80A00ADF80C00ADF810000A
:101420000C20ADF80E0001A90848FFF7ADFE01221F
:1014300040F225510548FFF782FE01210348FFF7DE
:1014400048FE06B010BD0000000801400038014011
:101450002DE9C04130B4DFF8A0C23CEA111418BF36
:101460003CEA131400F0EC8081EA03051CEA111435
:1014700044EAD57418BF1CEA131500F0C780A4EB2A
:1014800005044FF0004545EAC12145EAC32341EA7E
:10149000505143EA525304F17F74994204F50034E9
:1014A0004FEAC0204FEAC22208BF904200F09C8061
:1014B0004FEA13650FF24016765D4FEA134506FBBF
:1014C00005F7C7F1807706FB07F74FEAD737A7FB89
:1014D00003687642C8F58038A7FB06CE38BFA8F16E
:1014E000010807FB08E64FF0000EA6FB028CE6FBA6
:1014F00003CEDCF1000CCEF1004E38BFAEF1010E90
:10150000A6FB0C584FF000074FF00005E6FB0E87D6
:10151000A1FB08C6A0FB07CE16EB0E0645F10005A1
:10152000E1FB076515F1E04E7EBFA4F580345FEA6C
:1015300046066D4116F1800745F100054FEA172771
:101540004FEA066647EA0567A6F1DE46B6F1805F18
:101550004FEA15251FD9384624F0010C05EBC4715C
:10156000BCF1FE6F01EB0C1102D8F0BCBDE80081AC
:1015700024425CBF01F5801E9EEAC47F02D4F0BC09
:10158000BDE80081244238D4F0BCA1F1C041BDE8DF
:10159000004100F043B94FEAD22242EA43524FEAF7
:1015A000D323A7FB02864FEAD02040EA415007FB35
:1015B00003661EEA0E0F4FEAD12105FB026658BFF3
:1015C000A6EB0056B6EB00564FEA520E4EEAC37E2B
:1015D00018EB0E0E56EB530EBDD518EB02085E410C
:1015E0007F1C55F10005B6E74FF480154FF000075A
:1015F0004FF000064FF00008ADE7F0BC4FF00000E0
:1016000001F1C04101F00041BDE8008111EA0C1F69
:101610000CEA131500D00CE013EA0C1F00F0258033
:101620004FF00000F0BC81EA030101F00041BDE889
:101630000081F0BCBDE8004181EA030100F0EEB892
:10164000F0BCBDE8004170B500F09AF8097EFC3EA0
:1016500000F007B881EA03014FF0000001F00041FB
:10166000704781EA030100F0D9B8F0BCBDE8004141
:101670004FF0000021497047FFFDFBF9F7F5F4F248
:10168000F0EEEDEBE9E8E6E4E3E1E0DEDDDBDAD81D
:10169000D7D5D4D3D1D0CFCDCCCBCAC8C7C6C5C47B
:1016A000C2C1C0BFBEBDBCBBBAB9B8B7B6B5B4B392
:1016B000B2B1B0AFAEADACABAAA9A8A8A7A6A5A47D
:1016C000A3A3A2A1A09F9F9E9D9C9C9B9A99999841
:1016D0009797969595949393929191908F8F8E8EE4
:1016E0008D8C8C8B8B8A8989888887878685858471
:1016F00084838382828181800000FF070000F87F5D
:101700004FEA1153A3F58063D3F11E03A8BFD3F1B1
:10171000200C08DB4FF0004242EAC12252EA50524C
:1017200032FA03F0704709420BD4102BC4BF0020DB
:10173000704703F5787CBCF1FF3F05D04FF0FF30D8
:1017400070474FF00000704770B500F019F800BF07
:101750004992248000207047F0E7B0FA80F310FA35
:1017600003F10AD0C3F11D0303F580634FEA415032
:101770004FEA035202EBD12170474FF0000070474F
:101780000EF1020E2EF0030E5EF8046B364205D405
:10179000012A43EB030515F5001F12D8012841EB80
:1017A000010C1CF5001F0CD80ED14FEAD17C15F5A9
:1017B000001F0CEB4C0C0CF1020C08BF4CEBD37C63
:1017C00004E04FF0080C01E04FEAD37C0CEB4C0531
:1017D00026FA05F606F00706B6F1040C06D20EEB63
:1017E000860CBDE870404CF0010C6047DFE80CF05F
:1017F000090B02024FF000414FF00000A1F500215B
:1018000070BD19461046012851EB010418BFD4F5EC
:10181000001484BF002001F0004170BD0808A0F54D
:1018200000114FEA310170474818000800000020FD
:10183000580000006C010008A018000858000020A3
:10184000280700008801000800A24A0400000000E8
:101850000000000001020304060708090000000060
:10186000000000000000000000000102030401026B
:10187000030406070809020406080000000000002F
:101880000000000000000000000000000000000058
:101890000000000000000000000000000000000048
:04000005080001DD11
:00000001FF
